{"abi":[{"type":"constructor","inputs":[{"name":"defaultAdmin","type":"address","internalType":"address"}],"stateMutability":"nonpayable"},{"type":"function","name":"DEFAULT_ADMIN_ROLE","inputs":[],"outputs":[{"name":"","type":"bytes32","internalType":"bytes32"}],"stateMutability":"view"},{"type":"function","name":"balanceOf","inputs":[{"name":"account","type":"address","internalType":"address"},{"name":"id","type":"uint256","internalType":"uint256"}],"outputs":[{"name":"","type":"uint256","internalType":"uint256"}],"stateMutability":"view"},{"type":"function","name":"balanceOfBatch","inputs":[{"name":"accounts","type":"address[]","internalType":"address[]"},{"name":"ids","type":"uint256[]","internalType":"uint256[]"}],"outputs":[{"name":"","type":"uint256[]","internalType":"uint256[]"}],"stateMutability":"view"},{"type":"function","name":"claimBooster","inputs":[{"name":"boosterPack","type":"tuple","internalType":"struct Cards.BoosterPack","components":[{"name":"ids","type":"uint256[]","internalType":"uint256[]"},{"name":"nonce","type":"bytes32","internalType":"bytes32"},{"name":"signature","type":"bytes","internalType":"bytes"}]},{"name":"wantPrinted","type":"bool[]","internalType":"bool[]"}],"outputs":[],"stateMutability":"payable"},{"type":"function","name":"contractURI","inputs":[],"outputs":[{"name":"","type":"string","internalType":"string"}],"stateMutability":"pure"},{"type":"function","name":"exists","inputs":[{"name":"id","type":"uint256","internalType":"uint256"}],"outputs":[{"name":"","type":"bool","internalType":"bool"}],"stateMutability":"view"},{"type":"function","name":"getRoleAdmin","inputs":[{"name":"role","type":"bytes32","internalType":"bytes32"}],"outputs":[{"name":"","type":"bytes32","internalType":"bytes32"}],"stateMutability":"view"},{"type":"function","name":"grantRole","inputs":[{"name":"role","type":"bytes32","internalType":"bytes32"},{"name":"account","type":"address","internalType":"address"}],"outputs":[],"stateMutability":"nonpayable"},{"type":"function","name":"hasRole","inputs":[{"name":"role","type":"bytes32","internalType":"bytes32"},{"name":"account","type":"address","internalType":"address"}],"outputs":[{"name":"","type":"bool","internalType":"bool"}],"stateMutability":"view"},{"type":"function","name":"isApprovedForAll","inputs":[{"name":"account","type":"address","internalType":"address"},{"name":"operator","type":"address","internalType":"address"}],"outputs":[{"name":"","type":"bool","internalType":"bool"}],"stateMutability":"view"},{"type":"function","name":"mintedNonces","inputs":[{"name":"","type":"uint32","internalType":"uint32"},{"name":"","type":"bytes32","internalType":"bytes32"}],"outputs":[{"name":"","type":"bool","internalType":"bool"}],"stateMutability":"view"},{"type":"function","name":"registerCollection","inputs":[{"name":"gameId","type":"uint32","internalType":"uint32"},{"name":"collection","type":"uint80","internalType":"uint80"},{"name":"collectionCID","type":"string","internalType":"string"}],"outputs":[],"stateMutability":"nonpayable"},{"type":"function","name":"registerMinterRole","inputs":[{"name":"gameId","type":"uint32","internalType":"uint32"},{"name":"minter","type":"address","internalType":"address"}],"outputs":[],"stateMutability":"nonpayable"},{"type":"function","name":"renounceRole","inputs":[{"name":"role","type":"bytes32","internalType":"bytes32"},{"name":"callerConfirmation","type":"address","internalType":"address"}],"outputs":[],"stateMutability":"nonpayable"},{"type":"function","name":"revokeRole","inputs":[{"name":"role","type":"bytes32","internalType":"bytes32"},{"name":"account","type":"address","internalType":"address"}],"outputs":[],"stateMutability":"nonpayable"},{"type":"function","name":"safeBatchTransferFrom","inputs":[{"name":"from","type":"address","internalType":"address"},{"name":"to","type":"address","internalType":"address"},{"name":"ids","type":"uint256[]","internalType":"uint256[]"},{"name":"values","type":"uint256[]","internalType":"uint256[]"},{"name":"data","type":"bytes","internalType":"bytes"}],"outputs":[],"stateMutability":"nonpayable"},{"type":"function","name":"safeTransferFrom","inputs":[{"name":"from","type":"address","internalType":"address"},{"name":"to","type":"address","internalType":"address"},{"name":"id","type":"uint256","internalType":"uint256"},{"name":"value","type":"uint256","internalType":"uint256"},{"name":"data","type":"bytes","internalType":"bytes"}],"outputs":[],"stateMutability":"nonpayable"},{"type":"function","name":"setApprovalForAll","inputs":[{"name":"operator","type":"address","internalType":"address"},{"name":"approved","type":"bool","internalType":"bool"}],"outputs":[],"stateMutability":"nonpayable"},{"type":"function","name":"supportsInterface","inputs":[{"name":"interfaceId","type":"bytes4","internalType":"bytes4"}],"outputs":[{"name":"","type":"bool","internalType":"bool"}],"stateMutability":"view"},{"type":"function","name":"totalSupply","inputs":[],"outputs":[{"name":"","type":"uint256","internalType":"uint256"}],"stateMutability":"view"},{"type":"function","name":"totalSupply","inputs":[{"name":"id","type":"uint256","internalType":"uint256"}],"outputs":[{"name":"","type":"uint256","internalType":"uint256"}],"stateMutability":"view"},{"type":"function","name":"uri","inputs":[{"name":"_tokenID","type":"uint256","internalType":"uint256"}],"outputs":[{"name":"","type":"string","internalType":"string"}],"stateMutability":"view"},{"type":"event","name":"ApprovalForAll","inputs":[{"name":"account","type":"address","indexed":true,"internalType":"address"},{"name":"operator","type":"address","indexed":true,"internalType":"address"},{"name":"approved","type":"bool","indexed":false,"internalType":"bool"}],"anonymous":false},{"type":"event","name":"NonceUsed","inputs":[{"name":"nonce","type":"bytes32","indexed":false,"internalType":"bytes32"}],"anonymous":false},{"type":"event","name":"RoleAdminChanged","inputs":[{"name":"role","type":"bytes32","indexed":true,"internalType":"bytes32"},{"name":"previousAdminRole","type":"bytes32","indexed":true,"internalType":"bytes32"},{"name":"newAdminRole","type":"bytes32","indexed":true,"internalType":"bytes32"}],"anonymous":false},{"type":"event","name":"RoleGranted","inputs":[{"name":"role","type":"bytes32","indexed":true,"internalType":"bytes32"},{"name":"account","type":"address","indexed":true,"internalType":"address"},{"name":"sender","type":"address","indexed":true,"internalType":"address"}],"anonymous":false},{"type":"event","name":"RoleRevoked","inputs":[{"name":"role","type":"bytes32","indexed":true,"internalType":"bytes32"},{"name":"account","type":"address","indexed":true,"internalType":"address"},{"name":"sender","type":"address","indexed":true,"internalType":"address"}],"anonymous":false},{"type":"event","name":"TransferBatch","inputs":[{"name":"operator","type":"address","indexed":true,"internalType":"address"},{"name":"from","type":"address","indexed":true,"internalType":"address"},{"name":"to","type":"address","indexed":true,"internalType":"address"},{"name":"ids","type":"uint256[]","indexed":false,"internalType":"uint256[]"},{"name":"values","type":"uint256[]","indexed":false,"internalType":"uint256[]"}],"anonymous":false},{"type":"event","name":"TransferSingle","inputs":[{"name":"operator","type":"address","indexed":true,"internalType":"address"},{"name":"from","type":"address","indexed":true,"internalType":"address"},{"name":"to","type":"address","indexed":true,"internalType":"address"},{"name":"id","type":"uint256","indexed":false,"internalType":"uint256"},{"name":"value","type":"uint256","indexed":false,"internalType":"uint256"}],"anonymous":false},{"type":"event","name":"URI","inputs":[{"name":"value","type":"string","indexed":false,"internalType":"string"},{"name":"id","type":"uint256","indexed":true,"internalType":"uint256"}],"anonymous":false},{"type":"error","name":"AccessControlBadConfirmation","inputs":[]},{"type":"error","name":"AccessControlUnauthorizedAccount","inputs":[{"name":"account","type":"address","internalType":"address"},{"name":"neededRole","type":"bytes32","internalType":"bytes32"}]},{"type":"error","name":"ECDSAInvalidSignature","inputs":[]},{"type":"error","name":"ECDSAInvalidSignatureLength","inputs":[{"name":"length","type":"uint256","internalType":"uint256"}]},{"type":"error","name":"ECDSAInvalidSignatureS","inputs":[{"name":"s","type":"bytes32","internalType":"bytes32"}]},{"type":"error","name":"ERC1155InsufficientBalance","inputs":[{"name":"sender","type":"address","internalType":"address"},{"name":"balance","type":"uint256","internalType":"uint256"},{"name":"needed","type":"uint256","internalType":"uint256"},{"name":"tokenId","type":"uint256","internalType":"uint256"}]},{"type":"error","name":"ERC1155InvalidApprover","inputs":[{"name":"approver","type":"address","internalType":"address"}]},{"type":"error","name":"ERC1155InvalidArrayLength","inputs":[{"name":"idsLength","type":"uint256","internalType":"uint256"},{"name":"valuesLength","type":"uint256","internalType":"uint256"}]},{"type":"error","name":"ERC1155InvalidOperator","inputs":[{"name":"operator","type":"address","internalType":"address"}]},{"type":"error","name":"ERC1155InvalidReceiver","inputs":[{"name":"receiver","type":"address","internalType":"address"}]},{"type":"error","name":"ERC1155InvalidSender","inputs":[{"name":"sender","type":"address","internalType":"address"}]},{"type":"error","name":"ERC1155MissingApprovalForAll","inputs":[{"name":"operator","type":"address","internalType":"address"},{"name":"owner","type":"address","internalType":"address"}]}],"bytecode":{"object":"0x60806040523480156200001157600080fd5b5060405162002aa538038062002aa5833981016040819052620000349162000129565b6040805160208101909152600081526200004e8162000064565b506200005c60008262000076565b5050620002cc565b600262000072828262000200565b5050565b60008281526003602090815260408083206001600160a01b038516845290915281205460ff166200011f5760008381526003602090815260408083206001600160a01b03861684529091529020805460ff19166001179055620000d63390565b6001600160a01b0316826001600160a01b0316847f2f8788117e7eff1d82e926ec794901d17c78024a50270940304540a733656f0d60405160405180910390a450600162000123565b5060005b92915050565b6000602082840312156200013c57600080fd5b81516001600160a01b03811681146200015457600080fd5b9392505050565b634e487b7160e01b600052604160045260246000fd5b600181811c908216806200018657607f821691505b602082108103620001a757634e487b7160e01b600052602260045260246000fd5b50919050565b601f821115620001fb57600081815260208120601f850160051c81016020861015620001d65750805b601f850160051c820191505b81811015620001f757828155600101620001e2565b5050505b505050565b81516001600160401b038111156200021c576200021c6200015b565b62000234816200022d845462000171565b84620001ad565b602080601f8311600181146200026c5760008415620002535750858301515b600019600386901b1c1916600185901b178555620001f7565b600085815260208120601f198616915b828110156200029d578886015182559484019460019091019084016200027c565b5085821015620002bc5787850151600019600388901b60f8161c191681555b5050505050600190811b01905550565b6127c980620002dc6000396000f3fe6080604052600436106101345760003560e01c8063a217fddf116100ab578063d547741f1161006f578063d547741f146103a9578063ddf65f41146103c9578063e5af3740146103e9578063e8a3d485146103fc578063e985e9c514610411578063f242432a1461043157600080fd5b8063a217fddf146102ec578063a21f110114610301578063a22cb4651461033c578063bd85b0391461035c578063c8f494ee1461038957600080fd5b80632eb2c2d6116100fd5780632eb2c2d61461020e5780632f2ff15d1461023057806336568abe146102505780634e1273f4146102705780634f558e791461029d57806391d14854146102cc57600080fd5b8062fdd58e1461013957806301ffc9a71461016c5780630e89341c1461019c57806318160ddd146101c9578063248a9ca3146101de575b600080fd5b34801561014557600080fd5b50610159610154366004611b49565b610451565b6040519081526020015b60405180910390f35b34801561017857600080fd5b5061018c610187366004611b89565b610479565b6040519015158152602001610163565b3480156101a857600080fd5b506101bc6101b7366004611bad565b610484565b6040516101639190611c16565b3480156101d557600080fd5b50600554610159565b3480156101ea57600080fd5b506101596101f9366004611bad565b60009081526003602052604090206001015490565b34801561021a57600080fd5b5061022e610229366004611d74565b610518565b005b34801561023c57600080fd5b5061022e61024b366004611e1d565b610584565b34801561025c57600080fd5b5061022e61026b366004611e1d565b6105af565b34801561027c57600080fd5b5061029061028b366004611e49565b6105e7565b6040516101639190611f43565b3480156102a957600080fd5b5061018c6102b8366004611bad565b600090815260046020526040902054151590565b3480156102d857600080fd5b5061018c6102e7366004611e1d565b6106bb565b3480156102f857600080fd5b50610159600081565b34801561030d57600080fd5b5061018c61031c366004611f6a565b600660209081526000928352604080842090915290825290205460ff1681565b34801561034857600080fd5b5061022e610357366004611f96565b6106e6565b34801561036857600080fd5b50610159610377366004611bad565b60009081526004602052604090205490565b34801561039557600080fd5b5061022e6103a4366004611fc0565b6106f5565b3480156103b557600080fd5b5061022e6103c4366004611e1d565b61079f565b3480156103d557600080fd5b5061022e6103e4366004611fea565b6107c4565b61022e6103f736600461206c565b6108bd565b34801561040857600080fd5b506101bc610d94565b34801561041d57600080fd5b5061018c61042c366004612135565b610ddc565b34801561043d57600080fd5b5061022e61044c366004612151565b610e0a565b6000818152602081815260408083206001600160a01b03861684529091529020545b92915050565b600061047382610e69565b6060600760006104948460e01c90565b63ffffffff1663ffffffff16815260200190815260200160002060006104ba8460901c90565b69ffffffffffffffffffff16815260208101919091526040016000206104f1836fffffffffffffffffffffffffffffffff16610e8e565b6040516020016105029291906121ef565b6040516020818303038152906040529050919050565b336001600160a01b038616811480159061053957506105378682610ddc565b155b1561056f5760405163711bec9160e11b81526001600160a01b038083166004830152871660248201526044015b60405180910390fd5b61057c8686868686610f20565b505050505050565b60008281526003602052604090206001015461059f81610f80565b6105a98383610f8d565b50505050565b6001600160a01b03811633146105d85760405163334bd91960e11b815260040160405180910390fd5b6105e28282611021565b505050565b606081518351146106185781518351604051635b05999160e01b815260048101929092526024820152604401610566565b600083516001600160401b0381111561063357610633611c29565b60405190808252806020026020018201604052801561065c578160200160208202803683370190505b50905060005b84518110156106b35760208082028601015161068690602080840287010151610451565b82828151811061069857610698612276565b60209081029190910101526106ac816122a2565b9050610662565b509392505050565b60009182526003602090815260408084206001600160a01b0393909316845291905290205460ff1690565b6106f133838361108e565b5050565b6107006000336106bb565b61076a5760405162461bcd60e51b815260206004820152603560248201527f455243313135353a206d75737420686176652061646d696e20726f6c6520746f604482015274207265676973746572206d696e74657220726f6c6560581b6064820152608401610566565b60008260405160200161077d91906122bb565b6040516020818303038152906040528051906020012090506105a98183610f8d565b6000828152600360205260409020600101546107ba81610f80565b6105a98383611021565b6000836040516020016107d791906122bb565b6040516020818303038152906040528051906020012090506107f981336106bb565b6108625760405162461bcd60e51b815260206004820152603460248201527f455243313135353a206d75737420686176652061646d696e20726f6c6520746f604482015273103932b3b4b9ba32b91031b7b63632b1ba34b7b760611b6064820152608401610566565b8160405160200161087391906122e7565b60408051601f1981840301815291815263ffffffff861660009081526007602090815282822069ffffffffffffffffffff88168352905220906108b69082612367565b5050505050565b60006108c98380612426565b8460200135306040516020016108e29493929190612476565b60408051601f198184030181529082905280516020918201207f19457468657265756d205369676e6564204d6573736167653a0a33320000000091830191909152603c82018190529150605c0160405160208183030381529060405280519060200120905060006109978285806040019061095d91906124bc565b8080601f01602080910402602001604051908101604052809392919081815260200183838082843760009201919091525061112492505050565b905060006109c66109a88680612426565b60008181106109b9576109b9612276565b9050602002013560e01c90565b90506000816040516020016109db91906122bb565b6040516020818303038152906040528051906020012090506109fd81846106bb565b610a7a5760405162461bcd60e51b815260206004820152604260248201527f455243313135353a20536f6d652063617264732077657265206e6f742073696760448201527f6e65642062792076616c6964206d696e74657220666f7220746869732067616d606482015261329760f11b608482015260a401610566565b60005b610a878780612426565b90508160ff161015610b2d57610ab3610aa08880612426565b8360ff168181106109b9576109b9612276565b63ffffffff168363ffffffff1614610b1b5760405162461bcd60e51b815260206004820152602560248201527f455243313135353a20696473206172652066726f6d20646966666572656e742060448201526467616d657360d81b6064820152608401610566565b80610b2581612502565b915050610a7d565b50600085516001600160401b03811115610b4957610b49611c29565b604051908082528060200260200182016040528015610b72578160200160208202803683370190505b50905060005b86518160ff161015610be457868160ff1681518110610b9957610b99612276565b6020026020010151610bac576000610baf565b60015b60ff16828260ff1681518110610bc757610bc7612276565b602090810291909101015280610bdc81612502565b915050610b78565b5063ffffffff831660009081526006602090815260408083208a830135845290915290205460ff1615610c655760405162461bcd60e51b815260206004820152602360248201527f455243313135353a206d696e74696e6720616c72656164792075736564206e6f6044820152626e636560e81b6064820152608401610566565b8551610c718880612426565b905014610cd25760405162461bcd60e51b815260206004820152602960248201527f455243313135353a2069647320616e6420776973686c697374206c656e677468604482015268040dad2e6dac2e8c6d60bb1b6064820152608401610566565b63ffffffff831660009081526006602090815260408083208a83013584529091529020805460ff19166001179055610d5533610d0e8980612426565b8080602002602001604051908101604052809392919081815260200183836020028082843760009201829052506040805160208101909152908152879350915061114e9050565b60405160208089013582527f86e12680725060749e4481672cf4b5dde58e5f7222c1f01c7d94f40eba96e923910160405180910390a150505050505050565b60606000604051806101400160405280610116815260200161267e6101169139905080604051602001610dc79190612521565b60405160208183030381529060405291505090565b6001600160a01b03918216600090815260016020908152604080832093909416825291909152205460ff1690565b336001600160a01b0386168114801590610e2b5750610e298682610ddc565b155b15610e5c5760405163711bec9160e11b81526001600160a01b03808316600483015287166024820152604401610566565b61057c8686868686611186565b60006001600160e01b03198216637965db0b60e01b1480610473575061047382611214565b60606000610e9b83611264565b60010190506000816001600160401b03811115610eba57610eba611c29565b6040519080825280601f01601f191660200182016040528015610ee4576020820181803683370190505b5090508181016020015b600019016f181899199a1a9b1b9c1cb0b131b232b360811b600a86061a8153600a8504945084610eee57509392505050565b6001600160a01b038416610f4a57604051632bfa23e760e11b815260006004820152602401610566565b6001600160a01b038516610f7357604051626a0d4560e21b815260006004820152602401610566565b6108b6858585858561133c565b610f8a813361138f565b50565b6000610f9983836106bb565b6110195760008381526003602090815260408083206001600160a01b03861684529091529020805460ff19166001179055610fd13390565b6001600160a01b0316826001600160a01b0316847f2f8788117e7eff1d82e926ec794901d17c78024a50270940304540a733656f0d60405160405180910390a4506001610473565b506000610473565b600061102d83836106bb565b156110195760008381526003602090815260408083206001600160a01b0386168085529252808320805460ff1916905551339286917ff6391f5c32d9c69d2a47ea670b442974b53935d1edc7fd64eb21e047a839171b9190a4506001610473565b6001600160a01b0382166110b75760405162ced3e160e81b815260006004820152602401610566565b6001600160a01b03838116600081815260016020908152604080832094871680845294825291829020805460ff191686151590811790915591519182527f17307eab39ab6107e8899845ad3d59bd9653f200f220920489ca2b5937696c31910160405180910390a3505050565b60008060008061113486866113c8565b9250925092506111448282611415565b5090949350505050565b6001600160a01b03841661117857604051632bfa23e760e11b815260006004820152602401610566565b6105a960008585858561133c565b6001600160a01b0384166111b057604051632bfa23e760e11b815260006004820152602401610566565b6001600160a01b0385166111d957604051626a0d4560e21b815260006004820152602401610566565b6040805160018082526020820186905281830190815260608201859052608082019092529061120b878784848761133c565b50505050505050565b60006001600160e01b03198216636cdb3d1360e11b148061124557506001600160e01b031982166303a24d0760e21b145b8061047357506301ffc9a760e01b6001600160e01b0319831614610473565b60008072184f03e93ff9f4daa797ed6e38ed64bf6a1f0160401b83106112a35772184f03e93ff9f4daa797ed6e38ed64bf6a1f0160401b830492506040015b6d04ee2d6d415b85acef810000000083106112cf576d04ee2d6d415b85acef8100000000830492506020015b662386f26fc1000083106112ed57662386f26fc10000830492506010015b6305f5e1008310611305576305f5e100830492506008015b612710831061131957612710830492506004015b6064831061132b576064830492506002015b600a83106104735760010192915050565b611348858585856114ce565b6001600160a01b038416156108b65782513390600103611381576020848101519084015161137a8389898585896114da565b505061057c565b61057c8187878787876115fe565b61139982826106bb565b6106f15760405163e2517d3f60e01b81526001600160a01b038216600482015260248101839052604401610566565b600080600083516041036114025760208401516040850151606086015160001a6113f4888285856116e7565b95509550955050505061140e565b50508151600091506002905b9250925092565b600082600381111561142957611429612566565b03611432575050565b600182600381111561144657611446612566565b036114645760405163f645eedf60e01b815260040160405180910390fd5b600282600381111561147857611478612566565b036114995760405163fce698f760e01b815260048101829052602401610566565b60038260038111156114ad576114ad612566565b036106f1576040516335e2f38360e21b815260048101829052602401610566565b6105a9848484846117b6565b6001600160a01b0384163b1561057c5760405163f23a6e6160e01b81526001600160a01b0385169063f23a6e619061151e908990899088908890889060040161257c565b6020604051808303816000875af1925050508015611559575060408051601f3d908101601f19168201909252611556918101906125c1565b60015b6115c2573d808015611587576040519150601f19603f3d011682016040523d82523d6000602084013e61158c565b606091505b5080516000036115ba57604051632bfa23e760e11b81526001600160a01b0386166004820152602401610566565b805181602001fd5b6001600160e01b0319811663f23a6e6160e01b1461120b57604051632bfa23e760e11b81526001600160a01b0386166004820152602401610566565b6001600160a01b0384163b1561057c5760405163bc197c8160e01b81526001600160a01b0385169063bc197c819061164290899089908890889088906004016125de565b6020604051808303816000875af192505050801561167d575060408051601f3d908101601f1916820190925261167a918101906125c1565b60015b6116ab573d808015611587576040519150601f19603f3d011682016040523d82523d6000602084013e61158c565b6001600160e01b0319811663bc197c8160e01b1461120b57604051632bfa23e760e11b81526001600160a01b0386166004820152602401610566565b600080807f7fffffffffffffffffffffffffffffff5d576e7357a4501ddfe92f46681b20a084111561172257506000915060039050826117ac565b604080516000808252602082018084528a905260ff891692820192909252606081018790526080810186905260019060a0016020604051602081039080840390855afa158015611776573d6000803e3d6000fd5b5050604051601f1901519150506001600160a01b0381166117a2575060009250600191508290506117ac565b9250600091508190505b9450945094915050565b6117c284848484611910565b6001600160a01b038416611875576000805b835181101561185b5760008382815181106117f1576117f1612276565b60200260200101519050806004600087858151811061181257611812612276565b602002602001015181526020019081526020016000206000828254611837919061263c565b909155506118479050818461263c565b92505080611854906122a2565b90506117d4565b50806005600082825461186e919061263c565b9091555050505b6001600160a01b0383166105a9576000805b83518110156118ff5760008382815181106118a4576118a4612276565b6020026020010151905080600460008785815181106118c5576118c5612276565b6020026020010151815260200190815260200160002060008282540392505081905550808301925050806118f8906122a2565b9050611887565b506005805491909103905550505050565b805182511461193f5781518151604051635b05999160e01b815260048101929092526024820152604401610566565b3360005b8351811015611a4e576020818102858101820151908501909101516001600160a01b038816156119f6576000828152602081815260408083206001600160a01b038c168452909152902054818110156119cf576040516303dee4c560e01b81526001600160a01b038a166004820152602481018290526044810183905260648101849052608401610566565b6000838152602081815260408083206001600160a01b038d16845290915290209082900390555b6001600160a01b03871615611a3b576000828152602081815260408083206001600160a01b038b16845290915281208054839290611a3590849061263c565b90915550505b505080611a47906122a2565b9050611943565b508251600103611acf5760208301516000906020840151909150856001600160a01b0316876001600160a01b0316846001600160a01b03167fc3d58168c5ae7397731d063d5bbf3d657854427343f4c083240f7aacaa2d0f628585604051611ac0929190918252602082015260400190565b60405180910390a450506108b6565b836001600160a01b0316856001600160a01b0316826001600160a01b03167f4a39dc06d4c0dbc64b70af90fd698a233a518aa5d07e595d983b8c0526c8f7fb8686604051611b1e92919061264f565b60405180910390a45050505050565b80356001600160a01b0381168114611b4457600080fd5b919050565b60008060408385031215611b5c57600080fd5b611b6583611b2d565b946020939093013593505050565b6001600160e01b031981168114610f8a57600080fd5b600060208284031215611b9b57600080fd5b8135611ba681611b73565b9392505050565b600060208284031215611bbf57600080fd5b5035919050565b60005b83811015611be1578181015183820152602001611bc9565b50506000910152565b60008151808452611c02816020860160208601611bc6565b601f01601f19169290920160200192915050565b602081526000611ba66020830184611bea565b634e487b7160e01b600052604160045260246000fd5b604051601f8201601f191681016001600160401b0381118282101715611c6757611c67611c29565b604052919050565b60006001600160401b03821115611c8857611c88611c29565b5060051b60200190565b600082601f830112611ca357600080fd5b81356020611cb8611cb383611c6f565b611c3f565b82815260059290921b84018101918181019086841115611cd757600080fd5b8286015b84811015611cf25780358352918301918301611cdb565b509695505050505050565b60006001600160401b03831115611d1657611d16611c29565b611d29601f8401601f1916602001611c3f565b9050828152838383011115611d3d57600080fd5b828260208301376000602084830101529392505050565b600082601f830112611d6557600080fd5b611ba683833560208501611cfd565b600080600080600060a08688031215611d8c57600080fd5b611d9586611b2d565b9450611da360208701611b2d565b935060408601356001600160401b0380821115611dbf57600080fd5b611dcb89838a01611c92565b94506060880135915080821115611de157600080fd5b611ded89838a01611c92565b93506080880135915080821115611e0357600080fd5b50611e1088828901611d54565b9150509295509295909350565b60008060408385031215611e3057600080fd5b82359150611e4060208401611b2d565b90509250929050565b60008060408385031215611e5c57600080fd5b82356001600160401b0380821115611e7357600080fd5b818501915085601f830112611e8757600080fd5b81356020611e97611cb383611c6f565b82815260059290921b84018101918181019089841115611eb657600080fd5b948201945b83861015611edb57611ecc86611b2d565b82529482019490820190611ebb565b96505086013592505080821115611ef157600080fd5b50611efe85828601611c92565b9150509250929050565b600081518084526020808501945080840160005b83811015611f3857815187529582019590820190600101611f1c565b509495945050505050565b602081526000611ba66020830184611f08565b803563ffffffff81168114611b4457600080fd5b60008060408385031215611f7d57600080fd5b611b6583611f56565b80358015158114611b4457600080fd5b60008060408385031215611fa957600080fd5b611fb283611b2d565b9150611e4060208401611f86565b60008060408385031215611fd357600080fd5b611fdc83611f56565b9150611e4060208401611b2d565b600080600060608486031215611fff57600080fd5b61200884611f56565b9250602084013569ffffffffffffffffffff8116811461202757600080fd5b915060408401356001600160401b0381111561204257600080fd5b8401601f8101861361205357600080fd5b61206286823560208401611cfd565b9150509250925092565b6000806040838503121561207f57600080fd5b82356001600160401b038082111561209657600080fd5b90840190606082870312156120aa57600080fd5b90925060209084820135818111156120c157600080fd5b85019050601f810186136120d457600080fd5b80356120e2611cb382611c6f565b81815260059190911b8201830190838101908883111561210157600080fd5b928401925b828410156121265761211784611f86565b82529284019290840190612106565b80955050505050509250929050565b6000806040838503121561214857600080fd5b611fdc83611b2d565b600080600080600060a0868803121561216957600080fd5b61217286611b2d565b945061218060208701611b2d565b9350604086013592506060860135915060808601356001600160401b038111156121a957600080fd5b611e1088828901611d54565b600181811c908216806121c957607f821691505b6020821081036121e957634e487b7160e01b600052602260045260246000fd5b50919050565b60008084546121fd816121b5565b60018281168015612215576001811461222a57612259565b60ff1984168752821515830287019450612259565b8860005260208060002060005b858110156122505781548a820152908401908201612237565b50505082870194505b50505050835161226d818360208801611bc6565b01949350505050565b634e487b7160e01b600052603260045260246000fd5b634e487b7160e01b600052601160045260246000fd5b6000600182016122b4576122b461228c565b5060010190565b6a4d494e5445525f524f4c4560a81b815260e09190911b6001600160e01b031916600b820152600f0190565b66697066733a2f2f60c81b815260008251612309816007850160208701611bc6565b602f60f81b6007939091019283015250600801919050565b601f8211156105e257600081815260208120601f850160051c810160208610156123485750805b601f850160051c820191505b8181101561057c57828155600101612354565b81516001600160401b0381111561238057612380611c29565b6123948161238e84546121b5565b84612321565b602080601f8311600181146123c957600084156123b15750858301515b600019600386901b1c1916600185901b17855561057c565b600085815260208120601f198616915b828110156123f8578886015182559484019460019091019084016123d9565b50858210156124165787850151600019600388901b60f8161c191681555b5050505050600190811b01905550565b6000808335601e1984360301811261243d57600080fd5b8301803591506001600160401b0382111561245757600080fd5b6020019150600581901b360382131561246f57600080fd5b9250929050565b60006001600160fb1b0385111561248c57600080fd5b8460051b80878437919091019283525060601b6bffffffffffffffffffffffff1916602082015260340192915050565b6000808335601e198436030181126124d357600080fd5b8301803591506001600160401b038211156124ed57600080fd5b60200191503681900382131561246f57600080fd5b600060ff821660ff81036125185761251861228c565b60010192915050565b7f646174613a6170706c69636174696f6e2f6a736f6e3b757466382c000000000081526000825161255981601b850160208701611bc6565b91909101601b0192915050565b634e487b7160e01b600052602160045260246000fd5b6001600160a01b03868116825285166020820152604081018490526060810183905260a0608082018190526000906125b690830184611bea565b979650505050505050565b6000602082840312156125d357600080fd5b8151611ba681611b73565b6001600160a01b0386811682528516602082015260a06040820181905260009061260a90830186611f08565b828103606084015261261c8186611f08565b905082810360808401526126308185611bea565b98975050505050505050565b808201808211156104735761047361228c565b6040815260006126626040830185611f08565b82810360208401526126748185611f08565b9594505050505056fe7b226e616d65223a2022544347205265736561726368202d207634222c20226465736372697074696f6e223a202252657365617263682061726f756e64207573696e67206572632d31313535206d756c7469746f6b656e207374616e6461726420746f20666978206d756c7469706c652070726f626c656d732054434720706c61796572732061726520666163696e672e222c22696d616765223a202268747470733a2f2f63617264732e72616b6f77736b6969692e636f6d2f6173736574732f636f6c6c656374696f6e2e6a7067222c2265787465726e616c5f6c696e6b223a202268747470733a2f2f63617264732e72616b6f77736b6969692e636f6d2f222c22636f6c6c61626f7261746f7273223a205b5d7da2646970667358221220499ba9107fac6b107397009524bfe8d5647ec971a76df355e1d01722c6a772e264736f6c63430008140033","linkReferences":{}},"methodIdentifiers":{"DEFAULT_ADMIN_ROLE()":"a217fddf","balanceOf(address,uint256)":"00fdd58e","balanceOfBatch(address[],uint256[])":"4e1273f4","claimBooster((uint256[],bytes32,bytes),bool[])":"e5af3740","contractURI()":"e8a3d485","exists(uint256)":"4f558e79","getRoleAdmin(bytes32)":"248a9ca3","grantRole(bytes32,address)":"2f2ff15d","hasRole(bytes32,address)":"91d14854","isApprovedForAll(address,address)":"e985e9c5","mintedNonces(uint32,bytes32)":"a21f1101","registerCollection(uint32,uint80,string)":"ddf65f41","registerMinterRole(uint32,address)":"c8f494ee","renounceRole(bytes32,address)":"36568abe","revokeRole(bytes32,address)":"d547741f","safeBatchTransferFrom(address,address,uint256[],uint256[],bytes)":"2eb2c2d6","safeTransferFrom(address,address,uint256,uint256,bytes)":"f242432a","setApprovalForAll(address,bool)":"a22cb465","supportsInterface(bytes4)":"01ffc9a7","totalSupply()":"18160ddd","totalSupply(uint256)":"bd85b039","uri(uint256)":"0e89341c"},"id":37}